:020000040800F2
:1000000000800120710C00088D0B0008950B000882
:100010009D0B0008A50B0008AD0B000800000000B8
:10002000000000000000000000000000B50B000808
:10003000C30B000800000000D10B0008ED0500080C
:10004000C10C0008C10C0008C10C0008C10C00085C
:10005000C10C0008C10C0008C10C0008C10C00084C
:10006000C10C0008C10C000851060008C10C0008B2
:10007000C10C0008C10C0008C10C0008C10C00082C
:10008000C10C0008C10C0008C10C000800000000F1
:10009000000000000000000000000000C10C00088B
:1000A000C10C0008C10C0008C10C0008C10C0008FC
:1000B00009060008C10C0008C10C0008C10C0008AA
:1000C000C10C0008C10C0008C10C0008C10C0008DC
:1000D000C10C0008C10C0008C10C000800000000A1
:1000E000C10C0008C10C0008C10C00080000000091
:1000F000000000000000000000000000C10C00082B
:1001000000000000C10C0008C10C0008C10C000870
:1001100000000000000000000000000000000000DF
:10012000C10C0008C10C0008C10C0008C10C00087B
:10013000C10C0008000000000000000000000000EA
:10014000000000000000000000000000C10C0008DA
:10015000C10C0008C10C0008C10C0008C10C00084B
:10016000C10C0008C10C00080000000000000000E5
:10017000000000000000000000000000000000007F
:1001800000000000C10C000800000000000000009A
:04019000C10C000896
:1001A00010B5054C237833B9044B13B10448AFF3B1
:1001B00000800123237010BD5C00002000000000BF
:1001C000F415000808B5034B1BB103490348AFF30E
:1001D000008008BD0000000060000020F415000849
:1001E00001F0FF01102A2BDB10F0070F08D010F8E8
:1001F000013B013A8B422DD010F0070F42B3F6D1EC
:10020000F0B441EA012141EA014122F007047FF004
:1002100000070023F0E80256083C85EA010586EA5B
:10022000010685FA47F5A3FA87F586FA47F6A5FA97
:1002300087F68EB9EED1F0BC01F0FF0102F00702A3
:1002400032B110F8013B013A83EA010313B1F8D14E
:100250000020704701387047002D06BF354603382F
:10026000073815F0010F07D1013015F4807F02BF68
:10027000013015F4C03F0130F0BC0138704700BFB9
:1002800080B483B000AF0346FB7197F90730002BB1
:100290000BDBFB7903F01F02074997F907305B0975
:1002A000012000FA02F241F8232000BF0C37BD46BE
:1002B0005DF8047B704700BF00E100E080B483B0CC
:1002C00000AF03463960FB7197F90730002B0ADB5A
:1002D0003B68DAB20C4997F907301201D2B20B44ED
:1002E00083F800230AE03B68DAB20849FB7903F09F
:1002F0000F03043B1201D2B20B441A7600BF0C3735
:10030000BD465DF8047B704700E100E000ED00E0D1
:1003100080B582B000AF00F03DF800F05BF800F06F
:100320006DF800F0DFF800F011F900F057FA144909
:10033000002000F0BBFA1349012000F0B7FA4FF497
:100340007A7000F03BF9012000F00AFA0E4B1B68AE
:100350007B600E4B1B683B6000F0E6FA00F03EFB52
:10036000386800F05DFB0A4B1B687A68D31A312BA2
:10037000ECD9074A7B681360386800F0A1FBE5E719
:100380000C1600081C160008780000207C000020D5
:100390008C00002080B400AF0B4B1B680A4A43F06E
:1003A0000103136000BF084B1B6803F00203002B1E
:1003B000F9D0054B00229A60044B054A1A6000BF31
:1003C000BD465DF8047B70470038024008000020FD
:1003D0000024F40080B400AF074B43F67F625A60FC
:1003E000054B00229A60044B07221A6000BFBD46ED
:1003F0005DF8047B704700BF10E000E080B400AF00
:10040000314B1B6B304A43F0020313632E4B1B6BC3
:100410002D4A43F0040313632B4B1B6B2A4A43F012
:100420001003136300BF00BF284B1A682749284BED
:1004300013400B60254B1A682449264B13430B606D
:10044000224B5B68214A23F4515323F00703536086
:100450001E4BDA681D491E4B1340CB601E4B1B68B8
:100460001D4A23F0406313601B4B1B681A4A43F07C
:1004700080631360184B5B68174A23F40053536082
:10048000154BDB68144A23F04063D360134B1B68A1
:10049000124A23F470631360104BDB680F4A23F495
:1004A0007063D3600D4BDB680C4A43F4A063D360E8
:1004B000064B0B4A9A61084B4FF000529A6100BFFD
:1004C000BD465DF8047B70470038024000040240DE
:1004D000C0CFCFF0151010050008024000100240F8
:1004E0000000473480B500AF174B1B6C164A43F031
:1004F000010313644FF080430F229A624FF0804350
:1005000040F2E732DA624FF0804300225A624FF045
:100510008043DB684FF0804243F00103D3604FF02B
:10052000804300221A6101211C20FFF7C7FE1C2016
:10053000FFF7A6FE4FF080431B684FF0804243F068
:100540000103136000BF80BD0038024080B500AFDA
:10055000174B5B6C164A43F480435364154BDB68BE
:10056000144A23F00F03D360124BDB68114A43F0A7
:100570000403D360104B1B680F4A43F01003136051
:100580000D4BDB680C4A43F01003D3600A4B9B68A9
:10059000094A23F010039360074B10225A6100218F
:1005A0000A20FFF78BFE0A20FFF76AFE00BF80BD1E
:1005B0000038024000380140003C014080B485B062
:1005C00000AF7860084B1B68FB6000BF064B1A68E1
:1005D000FB68D31A7A689A42F8D800BF00BF143774
:1005E000BD465DF8047B70477800002080B400AF02
:1005F000044B1B680133034A136000BFBD465DF81E
:10060000047B70477800002080B400AF4FF0804337
:100610001B6903F00103002B11D04FF080431B69CD
:100620004FF0804223F001031361074B1B78DBB2CC
:10063000002B04D0054B1B680133044A136000BF34
:10064000BD465DF8047B7047800000207C000020E0
:1006500080B400AF124B5B6903F01003002B19D07C
:100660000F4B10225A610F4B1A680F4B1B68D31A9D
:10067000C72B0FD90B4B1B680B4A13600B4B1B7816
:10068000DBB2002B03D0094B00221A7002E0074BAB
:1006900001221A7000BFBD465DF8047B704700BFA1
:1006A000003C0140780000208400002080000020F1
:1006B00080B500AF074B02229A610120FFF77EFF51
:1006C000044B4FF400329A610120FFF777FF00BF1F
:1006D00080BD00BF0004024080B582B000AF034679
:1006E000FB71FB7903F00103002B03D01B4B0422A9
:1006F0009A6103E0194B4FF480229A61FB7903F071
:100700000203002B04D0154B4FF480629A6103E082
:10071000124B4FF080629A61FB7903F00403002BC7
:1007200004D00E4B4FF400529A6103E00B4B4FF094
:1007300000529A61FB7903F00803002B04D0074BA9
:100740004FF480529A6103E0044B4FF080529A615B
:10075000FFF7AEFF00BF0837BD4680BD0004024072
:1007600080B582B000AF0346FB710C4B4FF4803272
:100770009A61FB791B09DBB21846FFF7ADFFFB79E5
:1007800003F00F03DBB21846FFF7A6FF0220FFF7C6
:1007900015FF00BF0837BD4680BD00BF0004024002
:1007A00080B582B000AF0346FB710B4B01229A610A
:1007B000FB791B09DBB21846FFF78EFFFB7903F0CC
:1007C0000F03DBB21846FFF787FF0120FFF7F6FEA5
:1007D00000BF0837BD4680BD0004024080B500AFB1
:1007E0003220FFF7EBFE184B4FF480329A61164B24
:1007F0004FF400329A610320FFF76EFF0520FFF7E8
:10080000DDFE0320FFF768FF0520FFF7D7FE03207A
:10081000FFF762FF0120FFF7D1FE0220FFF75CFF28
:100820000120FFF7CBFE2820FFF79AFF0C20FFF7EF
:1008300097FF0620FFF794FF0120FFF791FF0220AA
:10084000FFF7BCFE00BF80BD0004024080B584B04D
:1008500000AF03460A46FB711346BB71FB79002BC0
:1008600003D1BB79803BFB7302E0BB79403BFB7358
:10087000FB7B1846FFF774FF00BF1037BD4680BDF5
:1008800080B582B000AF786007E07B681B781846BF
:10089000FFF786FF7B6801337B607B681B78002B4A
:1008A000F3D100BF00BF0837BD4680BD80B588B01A
:1008B00000AF03463960FB710023FB7708E0FB7F44
:1008C00020333B44202203F8142CFB7F0133FB77B9
:1008D000FB7F0F2BF3D900233B770023FB770BE043
:1008E000FB7F3A681A44FB7F127820333B4403F8BD
:1008F000142CFB7F0133FB77FB7F0F2B05D8FB7F8D
:100900003A6813441B78002BEAD1FB790021184682
:10091000FFF79CFF07F10C031846FFF7B1FF00BF7C
:100920002037BD4680BD000080B483B000AF264BA9
:100930001B6903F02003002B02D00123FB7101E0AF
:100940000023FB71214B1B78FA799A4235D0204B5A
:100950001A68204B1B68D31A4F2B2ED91C4B1B68CF
:100960001C4A1360194AFB791370FB79002B24D1C0
:10097000194B1B6840F6B832934204D1164B40F233
:10098000DC521A6019E0144B1B6840F2DC529342AF
:1009900004D1114B40F2EE221A600EE00E4B1B68A0
:1009A00040F2EE22934204D10B4B40F277121A60D0
:1009B00003E0094B40F6B8321A6000BF0C37BD4661
:1009C0005DF8047B704700BF001002400400002067
:1009D000780000209C0000200000002080B400AFC0
:1009E0000B4B1A680B4B1B68D21A0B4B1B689A42B5
:1009F00009D3074B1B68074A1360084B5B69074A1A
:100A000083F40053536100BFBD465DF8047B70471B
:100A1000780000208800002000000020000802402C
:100A200080B485B000AF78607B681E4AA2FB0323C8
:100A30009B09FB601C4B1B68FA689A421AD01A4A41
:100A4000FB681360194B1B78DBB2002B12D0FB68DC
:100A5000002B0FD0FB6803F00103002B0AD1144BCD
:100A600040229A61134B01221A70134B1B686433A6
:100A7000124A13600F4B1B78002B0DD00E4B1A68D7
:100A80000E4B1B68D31A002B06DB094B4FF4800278
:100A90009A61084B00221A7000BF1437BD465DF8FA
:100AA000047B7047D34D621090000020800000202E
:100AB00000040240940000207800002098000020EC
:100AC00080B592B002AF78607B68284AA2FB03230E
:100AD0009B09BB63BB6B264AA2FB03235B09FB6339
:100AE000BA6B234BA3FB021359090B461B015B1A7C
:100AF0009B00D31A7B637B681C4AA2FB03129209FA
:100B00004FF47A7101FB02F29B1A3B63FB6B632B80
:100B100001D96323FB63174B1B78DBB2002B01D099
:100B2000154B00E0154B07F11C0001933B6B009344
:100B30007B6BFA6B124900F0C5F8124B1A6807F18B
:100B400008031149184600F0BDF807F11C031946C7
:100B50000020FFF7ABFE07F1080319460120FFF75D
:100B6000A5FE00BF4037BD4680BD00BFD34D62101B
:100B70008988888880000020281600082C16000824
:100B800030160008000000204816000880B400AFAE
:100B900000BFFDE780B400AF00BFFDE780B400AF49
:100BA00000BFFDE780B400AF00BFFDE780B400AF39
:100BB00000BFFDE780B400AF00BFBD465DF8047B19
:100BC000704780B400AF00BFBD465DF8047B70473E
:100BD00080B400AF00BFBD465DF8047B70470000E5
:100BE00080B586B000AF7860144A154BD31A7B618C
:100BF0007B693B61134B1B68002B02D1114B124ADE
:100C00001A60104B1A687B6813443A699A4207D2FB
:100C100000F07AF803460C221A604FF0FF3309E027
:100C2000084B1B68FB60074B1A687B681344054A36
:100C30001360FB6818461837BD4680BD0080012050
:100C400000040000A0000020F001002080B400AFEC
:100C5000064BD3F88830054A43F47003C2F8883055
:100C600000BFBD465DF8047B704700BF00ED00E0AB
:100C7000DFF834D0FFF7EAFF0C480D490D4A002396
:100C800002E0D458C4500433C4188C42F9D30A4A41
:100C90000A4C002301E013600432A242FBD300F0AF
:100CA00039F8FFF735FB7047008001200000002075
:100CB0005C000020981600085C000020EC01002079
:100CC000FEE700000EB410B59DB01FAB0290069079
:100CD0006FF000410A48079104910A4953F8042B28
:100CE0000591002402A9006801931B9400F08CF97F
:100CF000029B1C701DB0BDE8104003B0704700BFE0
:100D00000C0000200802FFFF014B1868704700BF6D
:100D10000C00002070B50D4D0D4C641BA410002676
:100D2000A64209D10B4D0C4C00F064FC641BA410CE
:100D30000026A64205D170BD55F8043B9847013600
:100D4000EEE755F8043B98470136F2E790160008A5
:100D50009016000890160008941600087047704717
:100D600038B50546002941D051F8043C0C1F002B32
:100D7000B8BFE41800F0E0F81D4A136833B96360A7
:100D800014602846BDE8384000F0DCB8A34208D91A
:100D9000206821188B4201BF19685B68091821601F
:100DA000EDE71A465B680BB1A342FAD911685018F7
:100DB000A0420BD120680144501883421160E0D159
:100DC00018685B68536008441060DAE702D90C23A6
:100DD0002B60D6E7206821188B4204BF19685B6836
:100DE000636004BF091821605460CAE738BD00BFC2
:100DF000E801002070B50F4E0C463168054611B968
:100E000000F0A4FB30602146284600F09FFB431C05
:100E100003D14FF0FF34204670BDC41C24F00304FE
:100E2000A042F8D0211A284600F090FB0130F2D100
:100E3000EFE700BFE40100202DE9F843CD1C25F0C9
:100E4000030508350C2D38BF0C25002D064601DBA7
:100E5000A94204D90C2333600020BDE8F883DFF8F1
:100E6000D48000F069F8D8F800301C4644BB29460D
:100E70003046FFF7BFFF431C044658D1D8F8004066
:100E80002746002F43D1002C4BD0236839463046EB
:100E900004EB030900F05AFB814542D121686D1A29
:100EA00029463046FFF7A6FF01303AD023682B448D
:100EB0002360D8F800305A6862BBC8F800700FE0B1
:100EC0002268521B20D40B2A17D96119A34225602E
:100ED00018BF5960636808BFC8F8001062514B60C2
:100EE000304600F02FF804F10B00231D20F007001E
:100EF000C21A1CBF1B1AA350AFE76268A3420CBF03
:100F0000C8F800205A60EBE723466468AEE73C4629
:100F10007F68B6E71A465B68A342FBD100235360A3
:100F2000DEE70C233360304600F00CF894E70560F0
:100F3000D6E700BFE80100200148FFF70FBF00BF60
:100F4000E00100200148FFF70ABF00BFE0010020D8
:100F50002DE9F0478E681F46BE420B6882460C465C
:100F600090462DD8B1F90C2012F4906F26D0656907
:100F7000096905EB4505A3EB010905EBD5757B1C5C
:100F80004B446D109D4238BF1D46530527D5294659
:100F9000FFF752FF064660B321694A4600F0E6FAC1
:100FA000A38923F4906343F08003A38126616561E4
:100FB0004E44A5EB09052660A5603E46BE4200D919
:100FC0003E4620683246414600F0A6FAA3689B1BC5
:100FD000A3602368334423600020BDE8F0872A46DD
:100FE00000F0D2FA06460028E0D121695046FFF70A
:100FF000B7FE0C23CAF80030A38943F04003A38155
:101000004FF0FF30E9E700002DE9F04F98468B895B
:101010001B069DB007460D46144610D50B6973B9E3
:101020004021FFF709FF2860286130B90C233B609D
:101030004FF0FF301DB0BDE8F08F40236B610023FF
:10104000099320238DF82930CDF80C803023DFF868
:101050009C818DF82A304FF0010923469A4613F8F7
:10106000012B0AB1252AF9D1BAEB040B0BD05B4650
:10107000224629463846FFF76BFF013000F0A78073
:10108000099A5A4409929AF80030002B00F09F8088
:1010900000234FF0FF32CDE905230AF1010A049342
:1010A00007938DF853301A935446052214F8011B08
:1010B0004E48FFF795F8049AD8B9D00644BF2023CC
:1010C0008DF85330110744BF2B238DF853309AF815
:1010D00000302A2B15D0079A544600204FF00A0CF6
:1010E000214611F8013B303B092B4BD9B0B1079297
:1010F00014E0A0EB080309FA03F313430493A24698
:10110000D2E7039B191D1B680391002BBBBF5B42F9
:1011100042F0020207930793B8BF049223782E2B64
:101120000AD163782A2B32D1039B1A1D1B680392C4
:1011300043EAE37302340593DFF8C0A02178032269
:101140005046FFF74DF838B1049BA0EB0A0040224F
:10115000824013430134049314F8011B24488DF892
:1011600028100622FFF73CF8002836D0214B1BBB85
:10117000039B073323F0070308330393099B33448E
:1011800009936AE70CFB02320C460120A8E7002312
:101190000134059319464FF00A0C204610F8012B34
:1011A000303A092A03D9002BC6D00591C4E70CFBBD
:1011B000012104460123F0E703AB00932A460E4BBE
:1011C00004A93846AFF30080421C0646D6D1AB894D
:1011D0005B063FF52DAF09982CE703AB00932A4639
:1011E000054B04A9384600F079F8EDE754160008DD
:1011F0005E16000800000000510F00085A16000893
:101200002DE9F047164698468A680B69DDF820906C
:101210009342B8BF1346336091F8432007460C460B
:101220000AB1013333602368990642BF3368023341
:101230003360256815F0060506D104F1190AE36844
:1012400032689B1AAB4226DC94F843302268003B9C
:1012500018BF012392062BD404F1430241463846BD
:10126000C84701301ED02368226903F00603042B0F
:1012700002BFE5683368ED1AA3680CBF25EAE5757F
:1012800000259342C4BF9B1AED1800261A34B542BC
:101290001AD1002008E00123524641463846C8478B
:1012A000013003D14FF0FF30BDE8F0870135C6E7CC
:1012B000E1185A1C302081F84300224494F845106C
:1012C00082F843100233C7E70123224641463846DD
:1012D000C8470130E6D00136D9E700002DE9FF47C5
:1012E0000F7E0C9E782F914680460C469A4601F15F
:1012F000430207D8622F0AD8002F00F0D180582F60
:1013000000F0B88004F1420684F842703AE0A7F198
:101310006303152BF6D801A151F823F075130008CB
:1013200089130008051300080513000805130008B9
:1013300005130008891300080513000805130008A9
:10134000051300080513000887140008B3130008EC
:10135000411400080513000805130008A91400082B
:1013600005130008B313000805130008051300084F
:101370004914000833681A1D1B68326004F14206E4
:1013800084F8423001239CE033682068191D3160E5
:10139000060601D51D6803E04506FBD5B3F90050EC
:1013A000002D03DA2D236D4284F8433058480A2378
:1013B00011E021683368080653F8045B02D449063B
:1013C00048BFADB26F2F5248336014BF0A230823C1
:1013D000002184F843106668A660002E05DB2168B2
:1013E0002E4321F0040121604BD01646B5FBF3F1EA
:1013F00003FB1157C75D06F8017D2F46BB420D4622
:10140000F4D9082B0BD12368DF0708D5236961685D
:101410009942DEBF302306F8013C06F1FF36921BED
:101420002261CDF800A04B4603AA21464046FFF7B3
:10143000E7FE01304AD14FF0FF3004B0BDE8F0873D
:10144000236843F0200323603248782784F84570EE
:10145000236831681F0651F8045B02D45F0648BF59
:10146000ADB23160D90744BF43F0200323601DB102
:101470001023ADE72648E9E7236823F02003236023
:10148000F6E71646BDE7336825686169181D3060C8
:101490002E061B6801D5196002E06806FBD519808D
:1014A000002323611646BCE733681A1D32601E68AC
:1014B000626800213046FEF793FE08B1801B606031
:1014C00063682361002384F84330AAE72369324626
:1014D00049464046D0470130ADD023689B0713D41E
:1014E000E068039B9842B8BF1846A6E7012332463E
:1014F00049464046D04701309DD00135E368039905
:101500005B1AAB42F2DCEBE7002504F11906F5E7C4
:101510006516000876160008884210B501EB020433
:1015200002D98442234607D8431EA14208D011F8AD
:10153000012B03F8012FF8E7024401468A4200D14B
:1015400010BD13F8014D02F8014DF7E738B5064D0F
:101550000023044608462B60FFF742FB431C02D1E0
:101560002B6803B1236038BDDC0100200A4491429E
:1015700000F1FF3300D1704710B511F8014B03F8AB
:10158000014F9142F9D110BD2DE9F04107461446B3
:101590000D4621B9BDE8F0411146FFF74DBC2AB90F
:1015A000FFF7DEFB25462846BDE8F08100F01AF87B
:1015B0008442064602D8B4EB500FF4D82146384690
:1015C000FFF73AFC804608B94546ECE7B4422246AC
:1015D000294628BF3246FFF7C9FF29463846FFF79C
:1015E000BFFBF1E751F8043C181F002BBCBF0B58A0
:1015F000C0187047F8B500BFF8BC08BC9E467047DD
:0C160000F8B500BFF8BC08BC9E4670475F
:10160C004857342053746F7077617463680000001E
:10161C004E6F2048414C20436F64650052554E007C
:10162C00504155002530326C753A2530326C752E90
:10163C002530336C75202573000000004C45443A6E
:10164C0025346C75206D7300232D302B2000686CB5
:10165C004C006566674546470030313233343536C9
:10166C003738394142434445460030313233343502
:0C167C003637383961626364656600002F
:0816880058EBFF7F0100000098
:04169000C501000888
:04169400A1010008A8
:10169800B80B0000010000000024F4001000002036
:1016A80000000000A40000200C01002074010020AC
:1016B8000000000000000000000000000000000022
:1016C8000000000000000000000000000000000012
:1016D8000000000000000000000000000000000002
:0C16E800000000000000000000000000F6
:0400000508000C7172
:00000001FF
